:020000040800F2
:100000000040022029530008795300087953000862
:1000100000000000000000000000000000000000E0
:1000200000000000000000000000000079530008FC
:10003000000000000000000079530008833D000824
:100040007953000879530008795300087953000860
:1000500079530008093F0008193F0008293F0008AC
:100060007953000879530008795300087953000840
:1000700079530008CD380008E5380008ED3800084D
:1000800005390008293900084139000859390008A4
:100090007139000889390008A1390008795300082E
:1000A000795300087953000879530008814C0008FF
:0C00B000994C0008BD4C00087953000872
:1000BC0002B4714649084900095649008E4402BCF5
:1000CC007047C04602B4714649084900095C4900B2
:1000DC008E4402BC7047C046002243088B4274D346
:1000EC0003098B425FD3030A8B4244D3030B8B422D
:1000FC0028D3030C8B420DD3FF22090212BA030C36
:10010C008B4202D31212090265D0030B8B4219D316
:10011C0000E0090AC30B8B4201D3CB03C01A524136
:10012C00830B8B4201D38B03C01A5241430B8B427E
:10013C0001D34B03C01A5241030B8B4201D30B0367
:10014C00C01A5241C30A8B4201D3CB02C01A52418E
:10015C00830A8B4201D38B02C01A5241430A8B4251
:10016C0001D34B02C01A5241030A8B4201D30B023A
:10017C00C01A5241CDD2C3098B4201D3CB01C01A54
:10018C00524183098B4201D38B01C01A524143095E
:10019C008B4201D34B01C01A524103098B4201D34C
:1001AC000B01C01A5241C3088B4201D3CB00C01AB9
:1001BC00524183088B4201D38B00C01A5241430831
:1001CC008B4201D34B00C01A5241411A00D2014656
:1001DC00524110467047FFE701B5002000F006F8C9
:1001EC0002BDC0460029F7D076E770477047C0467D
:1001FC00002B11D1002A0FD1002900D1002802D0E8
:10020C000021C943080007B4024802A1401802901B
:10021C0003BDC046D9FFFFFF03B4684601B5029881
:10022C0005F0B8FB019B9E4602B00CBC7047C04663
:10023C001C2101231B04984201D3000C10391B0A0A
:10024C00984201D3000A08391B09984201D30009CE
:10025C00043902A2105C40187047C0460403020225
:10026C0001010101000000000000000010B5002990
:10027C0003D1FFF7DDFF203002E00800FFF7D8FFC5
:10028C0010BDC04610B5064C2378002B07D1054B8A
:10029C00002B02D0044800E000BF0123237010BDE6
:1002AC00AC00002000000000405B0008044B10B5BF
:1002BC00002B03D00349044800E000BF10BDC0462A
:1002CC0000000000B0000020405B000806229621D0
:1002DC0010B59140054804F075FF0121122005F07E
:1002EC00E3F80121C22005F0DFF810BD5402002014
:1002FC0010B546210B4C122005F04EF80021C220FF
:10030C0005F04AF8200005F077F90021122005F0DD
:10031C0043F84621C22005F03FF8200005F06CF9A7
:10032C0010BDC046881300007047000070B5104B1C
:10033C0005001978002901D1012070BDFA20800038
:10034C00FFF7CAFE0B4C01002068FFF7C5FE00F05A
:10035C008DF8041EF0D1032DEED8020001202900E7
:10036C00404200F03DF8044B20001D60E5E7C0461C
:10037C000000002048000020040000208023084AD0
:10038C005B00116810B50B4300201360FFF7CEFF24
:10039C00041E03D1FFF7C8FF200010BD0124FBE7AA
:1003AC0000200240034A044B11681B785B18136051
:1003BC007047C046C800002000000020014B1868A0
:1003CC007047C046C8000020034A044913680B401C
:1003DC00034313607047C04600000140FFF9FFFF64
:1003EC0010B5FF2403220B0021000240D2009140E3
:1003FC009B012340C943934000280ADBC0240B4ACD
:10040C00800880008018A40002590A40134303514D
:10041C0010BD0F2210400838054A80088000801853
:10042C00C26911401943C161F2E7C04600E100E026
:10043C0000ED00E0002805DB1F2318401E3B834025
:10044C00014A13607047C04600E100E0002809DB58
:10045C001F2318401E3B8340034AD367BFF34F8FC3
:10046C00BFF36F8F7047C04604E100E08022431E4B
:10047C005204012093420DD2C021074A0748536011
:10048C00036A09061B021B0A0B43036200200723A5
:10049C00906013607047C04610E000E000ED00E093
:1004AC00002807DB1F23C02218401E3B8340024953
:1004BC0052008B507047C04600E100E0704710B509
:1004CC00FFF7FCFF10BD704710B5041E01D10120D1
:1004DC0010BD437FDAB2002B02D10277FFF7F3FF96
:1004EC00022363772379002B1CD118212368124A2D
:1004FC005A619A688A439A6062792368002A19D1F2
:10050C00013A60211A619A6800208A4361690A43A2
:10051C0080219A609A688A43A1690A439A600123F0
:10052C006377D5E72000E268A16800F007F800289F
:10053C00E2D0CCE72269E4E7B71DC10430B5012550
:10054C000400280029420FD01F23013B22D30800AE
:10055C00D8402842F9D0102A15D0102A05D8002AE4
:10056C0008D00120082A12D030BD0120182AFBD156
:10057C00062BF9D820684161182183688B431343FB
:10058C0083600020F0E70120072BF3D9ECE70F2B59
:10059C00EAD8EFE70120102ADFD1E5E710B5040017
:1005AC000120002C0DD02379DAB2002B03D12000CE
:1005BC00627103F0CBFA022300202371013B20610E
:1005CC00237110BD10B504000120002C08D00223AB
:1005DC002000237103F01CFB00202061607120714E
:1005EC0010BD0300F0B50120002B1CD002245A7959
:1005FC002000012A17D001252E000E30084086401D
:10060C001A681C7117683E43166000290CD13E20F5
:10061C0011680140A14202D151680D43556001227D
:10062C0000201A715871F0BDF8251168AD032940EE
:10063C0025008540A942F2D151680C435460EEE785
:10064C00030030B50120002B0AD00F3001400F38C9
:10065C0005008D401C682268AA4322601871002096
:10066C0030BD37B5140000220500019201209542DF
:10067C000AD02A680192019A002906D1083200207A
:10068C0011190191019A13603EBD1432F7E7000075
:10069C00F7B504000D0016000120002C70D00029C5
:1006AC006ED0022362791800012A69D001222371CD
:1006BC0062710B68042B20D1FFF780FE0190002E95
:1006CC0069D180273F0223685A6B3A4247D1AA6905
:1006DC001A64102333483340984021688A6C824353
:1006EC00E86998400243FF2098408A64CA6C8243B0
:1006FC00286A984003001343CB64102229692368AD
:10070C003240012907D11E319140986B88436969A9
:10071C0091400143996307219140D86BAE6888439F
:10072C0029683143EE683143914001438020C00178
:10073C009040D9631968814319601B49186891402E
:10074C008843696891400143C02090401960196842
:10075C0081431960002001236071237110E0FFF7C1
:10076C002DFE019BC01A0128ADD923685B6B3B425F
:10077C00A9D0082322690320134323610323237187
:10078C00FEBDFFF71BFE019BC01A012803D923688D
:10079C005B6B002BEDDB23685A6B002AF1DBAA693B
:1007AC005A6496E7FF030000FE0F0000F0B5002826
:1007BC0008D0841DE37F411D022B05D00423C363A5
:1007CC000023CB770120F0BD0E250268866C1368E0
:1007DC001C27AB43136033680E4D2B403360012351
:1007EC0016689E431660426C066C3A409340026D4C
:1007FC007360C36C5A60436D002B05D01A682A4095
:10080C001A60836DC26D5A6001230020E377C877AC
:10081C00D9E7C046FFFEFFFF70B5811DCB7F022BD1
:10082C0003D00423C363012070BD0E2402681C2670
:10083C001368856CA3431360012314689C431460F4
:10084C002A680F4C22402A60426C056C324093405F
:10085C00026D6B60C36C5A60436D002B05D01A6837
:10086C0022401A60836DC26D5A6001230022CB773F
:10087C00431DDA77836B934200D098470020D3E76F
:10088C00FFFEFFFF70B5084D0400EB68184202D064
:10089C00E86003F02BFB2B69234203D020002C6172
:1008AC0003F028FB70BDC046001802408023034AA9
:1008BC005B0011680B4313607047C046007000402A
:1008CC0010B5114C1149236802000B4003432360FF
:1008DC00802300209B009A420ED10D4B0D491868C5
:1008EC0006235843FFF7F8FB8022431CD2006169B2
:1008FC0008001040114200D110BD002B01D0013B6B
:10090C00F5E70320F8E7C04600700040FFF9FFFF51
:10091C004800002040420F00F0B5040085B00028CC
:10092C0002D1012005B0F0BD0368DB0714D42368A5
:10093C009B0760D423681B0700D5C5E023685B07C1
:10094C0000D5F6E023689B0600D564E1236A002BF2
:10095C0000D0A5E10020E5E73822C44DAB68134078
:10096C00EA68102B09D1D3439B0708D12B689B0352
:10097C00DDD56368002BDAD1D3E7082BF6D08022C3
:10098C0063685202934211D12A6813432B60FFF71C
:10099C0015FD80270600BF022B683B42C7D1FFF72D
:1009AC000DFD801B6428F7D90320BBE7A021C902E9
:1009BC008B4208D180232968DB020B432B602B6808
:1009CC001A432A60E3E72A68A9490A402A602A6880
:1009DC00A8490A402A60002BD9D1FFF7EFFC8027E9
:1009EC000600BF022B683B42A1D0FFF7E7FC801B3F
:1009FC006428F7D9D8E738229C4DAB681340EA68D5
:100A0C00102B28D103210A40022A26D12A6852052C
:100A1C0003D5E268002A00D183E7696862699648C9
:100A2C00120201400A436A60002B0CD12B68934AD6
:100A3C0093491340226913432B602B68914A9B0402
:100A4C005B0FDA400A60904B1868FFF76FFC0028C8
:100A5C0000D16FE765E7002BD8D0E368002B20D0DE
:100A6C002B68864A802713402269FF0013432B60B2
:100A7C0080232A685B0013432B60FFF79FFC060062
:100A8C002B683B4207D06A6863697B491B020A40AA
:100A9C0013436B604EE7FFF791FC801B0228EFD9E4
:100AAC0082E72B68794A802713402B60FFF786FC7E
:100ABC000600FF002B683B4200D13BE7FFF77EFCB2
:100ACC00801B0228F6D96FE73822684DAB681340BB
:100ADC00182B08D12B6E9B0700D42FE7A369002B92
:100AEC0000D02BE71DE7A2690123002A10D02A6E43
:100AFC00022713432B66FFF761FC06002B6E3B426B
:100B0C0000D01BE7FFF75AFC801B0228F6D94BE7F5
:100B1C002A6E02279A432A66FFF750FC06002B6EBA
:100B2C003B4200D10AE7FFF749FC801B0228F6D9AB
:100B3C003AE738224D4DAB681340202B08D1EB6DB2
:100B4C009B0700D4FEE6A368002B00D0FAE6E8E68B
:100B5C0080220021EB6B52050091134208D1EB6B04
:100B6C001343EB63EB6B13400393039B0123009341
:100B7C008027474E7F0033683B4215D0A368012B7A
:100B8C0022D1EA6D1343EB65FFF718FC0227060030
:100B9C00EB6D3B4238D0009B012B00D0D2E6EB6BC7
:100BAC003C4A1340EB63CDE633683B433360FFF7BD
:100BBC0005FC019033683B42E0D1FFF7FFFB019B42
:100BCC00C01A0228F6D9EFE6EA6D052B05D1013BD8
:100BDC001343EB65EA6D0123D4E701218A43EA65EF
:100BEC00EA6D03318A43EA65002BCDD1FFF7E6FBB2
:100BFC0002270600EB6D3B42CDD0FFF7DFFB264B07
:100C0C00801B9842F6D9CFE6FFF7D8FB224B801B0E
:100C1C009842BDD9C8E6E369144D002B13D080234C
:100C2C002A68DB0313432B60FFF7C8FB8027060001
:100C3C003F042B683B4200D088E6FFF7BFFB801BCC
:100C4C000228F6D9B0E62B68144A802713402B6093
:100C5C00FFF7B4FB06003F042B683B4200D175E65E
:100C6C00FFF7ACFB801B0228F6D99DE60010024072
:100C7C00FFFFFEFFFFFFFBFFFF80FFFFFFC7FFFF34
:100C8C00480000200024F40004000020FFFEFFFFB9
:100C9C0000700040FFFFFFEF88130000FFFFBFFF55
:100CAC003821434DAA680A40102A53D0414A022BDE
:100CBC003AD12B68802713402B60FFF77FFB06008F
:100CCC00BF042B683B4229D1A16A636AEA680B43D3
:100CDC00394980260A401343226BB6041343626BD6
:100CEC001343A26B1343E26A12021343EB6080239B
:100CFC002A685B0413432B608023EA685B0513436B
:100D0C00EB60FFF75BFB04002B68334200D021E65D
:100D1C00FFF754FB001B0228F6D945E6FFF74EFB04
:100D2C00801B0228CDD93FE62B68802613402B6010
:100D3C00FFF744FB0400B6042B68334204D1EB6884
:100D4C001E4A1340EB6005E6FFF738FB001B022838
:100D5C00F2D929E6012B00D1E3E50322E868616AA8
:100D6C0002408A4200D0DCE57022A16A02408A422D
:100D7C0000D0D6E5FE21E26AC9010140120291427F
:100D8C0000D0CEE5F822216B920302408A4200D0BB
:100D9C00C7E5E022616B120502408A4200D0C0E533
:100DAC00A36B400F4007C01A431E9841C0B2B9E56F
:100DBC0000100240FFFFFFFE8C80C111FCFFFEEE15
:100DCC00382370B51D4CA2681A4205D123681C4803
:100DDC009B045B0FD84070BDA2681A40082A27D02C
:100DEC00A2681A40102A17D1E368E168DB43E56872
:100DFC004906490F6F322D0A013115409B0709D165
:100E0C001048FFF769F9E1686843490F0131FFF7B2
:100E1C0063F9E0E70A48F4E7A2681A40202A09D0EF
:100E2C00A26800201340182BD5D1FA20C001D2E7BC
:100E3C000448D0E780200002CDE7C04600100240F5
:100E4C000024F40000127A00F7B504000D0000280D
:100E5C0001D10120FEBD0727484E33683B408B4231
:100E6C002AD3226893073BD4D20748D40727336888
:100E7C003B40AB420AD93368BB432B433360FFF78B
:100E8C009DFA019033683B40AB4268D123683C4DDE
:100E9C005B076CD4FFF794FFAB683A491B051B0F3B
:100EAC009B005B581F210B40D840374A374B1060D2
:100EBC001868FFF73BFACDE73368BB430B4333604D
:100ECC00FFF77CFA019033683B40AB42C9D0FFF787
:100EDC0075FA019BC01A2E4B9842F4D90320B9E73E
:100EEC002749530704D5E0238868DB0103438B6053
:100EFC008B6828480340A06803438B60B4E76068A4
:100F0C001F4F032829D8FFF7DDF820021C243B686B
:100F1C009B039ED50722BB6893430343BB60FFF73B
:100F2C004DFA01903823BA681A406368DB009A4284
:100F3C009CD0FFF743FA019BC01A154B9842F1D98C
:100F4C00CCE73B689B01E5D483E73B685B05E1D4C8
:100F5C007FE73B6E9B07DDD47BE7FB6DFAE7FFF782
:100F6C002DFA019BC01A0A4B98428BD9B6E7AB6895
:100F7C00094A1340E2681343AB608BE70020024040
:100F8C0000100240E05B0008480000200400002034
:100F9C0088130000FFF0FFFFFF8FFFFF064B074990
:100FAC009B68074A5B045B0F9B005B581F21106812
:100FBC000B40D8407047C04600100240C05B000890
:100FCC0048000020072230B5F025094B02609C68D0
:100FDC002D01144044609C682C408460E0249B6884
:100FEC00E4012340C360034B1B6813400B6030BD0E
:100FFC000010024000200240F0B50368040085B0E8
:10100C0000209B0352D58022974D5205EB6B00902C
:10101C00134208D1EB6B1343EB63EB6B134003935D
:10102C00039B012300938027904E7F0033683B4342
:10103C003360FFF7C3F9019033683B4228D0EA6D67
:10104C00C02310009B00216C894E18401A4218D006
:10105C00884216D08022EB6DE86D190052020243D3
:10106C00EA65EA6D834831400240EA65E965DB07D1
:10107C0007D5FFF7A3F907000222EB6D134200D14D
:10108C00E9E0EB6D226C334013430020EB6506E086
:10109C00FFF794F9019BC01A0228CDD90320009BBD
:1010AC00012B03D1EB6B744A1340EB632368DA0713
:1010BC0006D503256C494A6DAA4365682A434A65DF
:1010CC009A0706D50C2568494A6DAA43A5682A4398
:1010DC004A655A0706D5302563494A6DAA43E56827
:1010EC002A434A65DA0606D55F49644D4A6D2A40A3
:1010FC0025692A434A65DA0406D55B495C4D4A6D7D
:10110C002A4065692A434A659A0506D556495C4DBD
:10111C004A6D2A40A56A2A434A655A0506D55249A2
:10112C00584D4A6D2A40E56A2A434A659A0606D507
:10113C004D49554D4A6D2A40A5692A434A655A06C0
:10114C0006D54949514D4A6D2A40E5692A434A65FD
:10115C005A040FD54449256B4A6D920092082A43D4
:10116C004A658022D205954204D18022CD68520274
:10117C002A43CA601A0306D540253B494A6DAA4347
:10118C00656B2A434A659A020FD53749404E4A6D22
:10119C00A56B32402A434A658022D203954204D182
:1011AC008022CD6852042A43CA605A020DD52E4DB6
:1011BC00384E696DE26B31401143696580214904F9
:1011CC008A4202D1E9680A43EA601A050DD5032662
:1011DC002549256A8A6DB2432A438A65012D04D1BB
:1011EC008022CD6852022A43CA609A040DD50C267F
:1011FC001D49656A8A6DB2432A438A65042D04D160
:10120C008022CD6852022A43CA6080256D042B428D
:10121C000DD015491C4F8A6D666C3A4032438A6575
:10122C0080229201964202D1CA681543CD609B017F
:10123C000FD50D4AA16C936D0D4C23400B43936558
:10124C0080235B00994204D18023D1685B040B435B
:10125C00D36005B0F0BDFFF7B1F80F4BC01B98423F
:10126C0000D809E71AE7C0460010024000700040A1
:10127C00FFFCFFFFFFFFFEFFFFFFFFEFFFF3FFFF92
:10128C00FFFFF3FFFFFFCFFFFFCFFFFFFF3FFFFF8E
:10129C00FFFFBFFFFFFFFFFE8813000070B50124A6
:1012AC00036A026AA24302624468134A85691540C4
:1012BC000A681543022293438A6813430F4A9042EB
:1012CC0008D00F4A904205D00E4A904202D00E4AE6
:1012DC0090420BD108229343CA688E6913430422AF
:1012EC0093430A4A22404C69344314434A6844608D
:1012FC0085614263036270BD8CFFFEFF002C0140D0
:10130C00004001400044014000480140FFFCFFFF49
:10131C0070B5184A056A036A134003624268164B9B
:10132C00C4691C400B681C43144B1D408B681B028A
:10133C002B43134DA8420ED1124D1D40CB681B02FE
:10134C002B43114D2B40114D8E6915404A69324388
:10135C0012012A4308E00E4DA842F4D00D4DA842CC
:10136C00F1D00D4DA842EED042604A68C461C26310
:10137C00036270BDFFFEFFFF8CFFFEFFFFFDFFFF52
:10138C00002C0140FFF7FFFFFFFBFFFFFFCFFFFF2C
:10139C0000400140004401400048014030B5144A6F
:1013AC00046A036A134D134003624368C2692A40FE
:1013BC000D682D021543104A14408A68120322430B
:1013CC000E4CA04208D00E4CA04205D00D4CA042B1
:1013DC0002D00D4CA04204D10C4C1C404B699B011B
:1013EC00234343604B68C5610364026230BDC04651
:1013FC00FFEFFFFFFF8CFFFEFFDFFFFF002C014024
:10140C00004001400044014000480140FFBFFFFF85
:10141C0070B5066A124C036A124A23400362436891
:10142C00456D15400A6815430F4A16408A68120428
:10143C0032430E4EB04208D00D4EB04205D00D4E88
:10144C00B04202D00C4EB04203D11C404B691B027F
:10145C00234343604B6845658365026270BDC0469B
:10146C00FFFFFEFF8FFFFEFFFFFFFDFF002C014083
:10147C0000400140004401400048014030B5144A8E
:10148C00046A036A134D134003624368426D2A4099
:10149C000D682D021543104A14408A681205224328
:1014AC000E4CA04208D00E4CA04205D00D4CA042D0
:1014BC0002D00D4CA04204D10C4C1C404B699B0239
:1014CC00234343604B684565C365026230BDC0462B
:1014DC00FFFFEFFFFF8FFFFEFFFFDFFF002C014040
:1014EC00004001400044014000480140FFFFFBFF69
:1014FC0001000300012010B53D310C78E2B28442AA
:10150C001FD1001808701B680F498B420CD080212A
:10151C00C9058B4208D00D498B4205D00C498B4232
:10152C0002D00C498B420DD19A680B490A40062A0D
:10153C0006D007398A4203D0012219680A431A607F
:10154C00002010BD1968F9E7002C01400004004090
:10155C00000800400040014007000100020030B5C7
:10156C0002243C32157803002000012D08D018000D
:10157C003D3004701B68596101230370002010700A
:10158C0030BD7047704700000222036870B5DD68FB
:10159C001E69040016420DD015420BD0053A1A6193
:1015AC00043202779B699B0700D17CE002F05FFA62
:1015BC000023237704231E4212D01D4210D0052293
:1015CC00236852421A61073222779A69C0239B0022
:1015DC0020001A4200D16CE002F049FA0023237774
:1015EC0008231E420FD01D420DD0092223685242FF
:1015FC001A610D322277DB6920009B075FD002F065
:10160C0036FA0023237710231E4211D01D420FD02F
:10161C001122236852421A6119322277DA69C023E7
:10162C009B0020001A4250D002F021FA00232377AD
:10163C0001231E4208D01D4206D0022223685242CA
:10164C0020001A6102F0E8F982239B011E4207D0A8
:10165C002B0605D52368204A20001A6100F007FCF0
:10166C00F30507D52B0605D523681C4A20001A6103
:10167C0000F0FEFB40231E4208D01D4206D0412242
:10168C002368524220001A61FFF77CFF20231E4280
:10169C0008D01D4206D021222368524220001A6134
:1016AC0000F0E4FB70BD02F0DEF92000FFF769FFEB
:1016BC007EE702F0D8F92000FFF763FF8EE702F017
:1016CC00D2F92000FFF75DFF9BE702F0CCF9200078
:1016DC00FFF757FFAAE7C0467FDFFFFFFFFEFFFFC4
:1016EC0010B5214C0368A04209D08022D20590424B
:1016FC0005D01E4A904202D01D4A904208D1702259
:10170C0093434A6813431B4A1A40CB6813430BE0BC
:10171C00194A9042F7D0194A9042F4D0184A904294
:10172C00F1D0184A9042EED0802293434A69134379
:10173C0003608B68C3620B688362A04208D00F4BB6
:10174C00984205D00E4B984202D00E4B984201D1D4
:10175C000B690363012242610369134202D00369DE
:10176C009343036110BDC046002C014000040040AF
:10177C0000080040FFFCFFFF00200040004001403B
:10178C00004401400048014070B504000120002CC9
:10179C0023D025003D352B78DAB2002B05D1230060
:1017AC003C3320001A7002F021FF02232B702068BA
:1017BC00211DFFF795FF22000123002048321370F2
:1017CC0047340A3A137053709370D370137153717A
:1017DC009371D371137223702B7070BD102270B57E
:1017EC00056A036A174C934303624268836923407A
:1017FC000C6824021C4320239D438B681B012B4344
:10180C00114DA8420FD18025AB431E00CB68403D43
:10181C001B013343AB430D4D8E6915404A6932436E
:10182C0092002A4308E00A4DA842F4D0094DA84280
:10183C00F1D0094DA842EED042604A6884618263BF
:10184C00036270BDFF8CFFFE002C0140FFF3FFFF15
:10185C0000400140004401400048014070B50400C4
:10186C003C34257803000220012D0BD00C2A1FD00C
:10187C0009D8042A14D0082A16D0002A0BD001202B
:10188C000023237070BD102A16D0142AF7D11868C3
:10189C00FFF7F4FD02E01868FFF700FD0020EFE70A
:1018AC001868FFF79BFFF9E71868FFF731FDF5E7BC
:1018BC001868FFF773FDF1E71868FFF7A9FDEDE76E
:1018CC00F8B507003C3715003A7803000C000220ED
:1018DC00012A0CD0013838700C2D51D008D8042DA9
:1018EC002DD0082D3CD0002D17D000233B70F8BD17
:1018FC00102D58D0142DF8D11D682800FFF7BEFD0F
:10190C0080236A6D1B0113436B656B6D2E4A13406C
:10191C006B6523696A6D1B0253E01D682800FFF795
:10192C00BDFC0823AA6913430422AB61AB69934342
:10193C00AB61AB6922691343AB610020D5E71D682D
:10194C002800FFF74BFF8023AA691B011343AB61EF
:10195C00AB691D4A1340AB612369AA691B02EAE714
:10196C001E683000FFF7D4FC0422F3691D43F561B7
:10197C00F3699343F361F36922691343F361DCE781
:10198C001D682800FFF70AFD8023EA691B01134339
:10199C00EB61EB690C4A1340EB612369EA691B02AA
:1019AC001343EB61C9E71D682800FFF731FD0823DD
:1019BC006A6D134304226B656B6D93436B656B6DA2
:1019CC00226913436B65B8E7FFFBFFFFF0B50126F7
:1019DC00046A1500026A124FB24302628269B8426D
:1019EC001AD08027FF05B84216D00E4FB84213D03C
:1019FC000D4FB84210D00D4FB8420DD03243F025E8
:101A0C00AA431B010F352B4013430A229443114068
:101A1C00214383610162F0BD0326B2432A43EEE702
:101A2C00002C014000040040000800400040014030
:101A3C000300F7B53C3301900C0019780220012902
:101A4C000CD001381870082A67D008D8002A2DD07D
:101A5C00042A3DD00023019D3C352B70FEBD0C2A81
:101A6C00F8D1019B404D1B6822681E6A1F6A606892
:101A7C002F40E1681F62DF693C4D00022F40384364
:101A8C003B4F09073840090C01433A481203064002
:101A9C00A020000202403243D9611A62DA69364949
:101AAC000A40DA61A268D96912025AE0019B6268A5
:101ABC001E682168E3683000FFF788FF0C22B369C9
:101ACC009343B361B369A2681343B3610020C1E7C8
:101ADC001025019B22681B6860681E6A1F6AE168FA
:101AEC00AF431F629F69214D00022F403843204FA6
:101AFC0009073840090C0143A0201201864302401B
:101B0C00324399611A629A691B490A409A61A26828
:101B1C00996912020A439A61D8E7019B174D1B6819
:101B2C0022681E6A1F6A60682F40E1681F62DF69C5
:101B3C000535FF35AF433843F0270901B8430F375C
:101B4C00394001430E48D9613040A0260C211202C5
:101B5C003601324002431A62DA698A43DA61DA6981
:101B6C00A1680A43DA61B1E7FFEFFFFFFFFCFFFF5B
:101B7C00FF0FFFFFFF5FFFFFFFF3FFFFFFFEFFFF06
:101B8C00FFF5FFFF1F2310B5012419408C408A403C
:101B9C00036AA3430362036A1A43026210BD000086
:101BAC00020010B508291CD006D800290BD0042936
:101BBC0014D01300433308E00C2915D01029F8D1A8
:101BCC000300423301E003003E331B78013B581EF7
:101BDC008341DBB20120002B09D010BD03003F3341
:101BEC00F3E703004033F0E703004133EDE7022352
:101BFC00082936D006D800290BD004292ED0100085
:101C0C00433008E00C292FD01029F8D110004230B5
:101C1C0001E010003E300370146801222000FFF731
:101C2C00B1FF1C4A944208D01B4B9C4205D01B4B65
:101C3C009C4202D01A4B9C4219D18023616C1B022E
:101C4C000B436364944202D0134B9C421CD1A36897
:101C5C00144A1340062B13D10020BEE710003F306E
:101C6C00D9E710004030D6E710004130D3E780238D
:101C7C00DB059C42EBD00C4B9C42E8D00B4BE4E7D1
:101C8C00802252029342E7D001232268134323603F
:101C9C00E2E7C046002C01400040014000440140F6
:101CAC00004801400700010000040040000800400B
:101CBC0010B5FFF775FF10BD030010B5082927D02C
:101CCC0006D800290BD004291FD01A00433224E077
:101CDC000C2920D01029F8D1020042321DE002005C
:101CEC003E3210780632C0B21278D2B2012855D1E9
:101CFC00012A44D10132082945D013D8002918D023
:101D0C0004293DD01800433042E002003F32E8E79E
:101D1C0002004032E5E70200413210781A00C0B2EE
:101D2C004732E1E70C2931D01029EBD118004230B1
:101D3C002EE018003E30027082711C6801222000D7
:101D4C00FFF720FF164B9C420CD08023DB059C42F6
:101D5C0008D0144B9C4205D0134B9C4202D0134B21
:101D6C009C4207D1A368124A1340062B06D0073AAF
:101D7C00934203D00123226813432360002010BD3B
:101D8C0018003F30D7E718004030D4E71800413036
:101D9C0002701A00022047321070CEE70120EEE7E5
:101DAC00002C0140000400400008004000400140AD
:101DBC00070001000F2310B5042419408C408A4001
:101DCC00036AA3430362036A1A43026210BD000054
:101DDC000300020010B5002905D14432012014780B
:101DEC0084420AD010BD042901D14532F6E70829F6
:101DFC0001D14632F2E74732F0E7022010701C683E
:101E0C0004222000FFF7D6FF8023626C1B021343D1
:101E1C0063640F4B9C420CD08023DB059C4208D0A2
:101E2C000C4B9C4205D00C4B9C4202D00B4B9C4261
:101E3C0007D1A3680A4A1340062B06D0073A9342EF
:101E4C0003D001232268134323600020CAE7C04655
:101E5C00002C0140000400400008004000400140FC
:101E6C000700010010B5FFF7B3FF10BD70477047B6
:101E7C007047000030B5EFF31084012282F3108814
:101E8C000168134D0B682B400B6084F31088EFF343
:101E9C00108182F3108802680E4C93682340936083
:101EAC0081F31088C36E012B0AD1EFF3108183F3F9
:101EBC001088102402681368A343136081F3108800
:101ECC00030020228C331A600023C366436730BDA5
:101EDC00DFFEFFFFFEFFFFEF30B5EFF310840122B2
:101EEC0082F31088802501680B68AB430B6084F388
:101EFC001088EFF3108182F3108840230268106879
:101F0C000343136081F3108830BD030088331B68D2
:101F1C0010B5212B06D1020056321388002B02D1AA
:101F2C00FFF7DAFF10BD036D01681C7801338C627A
:101F3C0003651388013B9BB21380F3E703008833DE
:101F4C001B6810B5212B06D1010056310B88002BD4
:101F5C0002D1FFF7C1FF10BD026D04681388023275
:101F6C00DB05DB0DA36202650B88013B9BB20B808A
:101F7C00F1E70000030088331B6870B5212B21D1D9
:101F8C000300010080246A331B885631002B19D0C2
:101F9C000A88002A17D1EFF31084013282F31088DB
:101FAC000168114D8B682B408B6084F31088EFF324
:101FBC00108182F310884023026810680343136079
:101FCC0081F3108870BD0568EA69224208D0026D61
:101FDC0016780132AE6202650A88013A92B20A8022
:101FEC00013B9BB2D2E7C046FFFF7FFF0300883363
:101FFC001B6870B5212B21D10300010080246A33AA
:10200C001B885631002B19D00A88002A17D1EFF300
:10201C001084013282F310880168124D8B682B40BA
:10202C008B6084F31088EFF3108182F310884023C7
:10203C00026810680343136081F3108870BD066852
:10204C00F26922420AD0056D2A880235D205D20DDA
:10205C00B26205650A88013A92B20A80013B9BB2D2
:10206C00D0E7C046FFFF7FFF7047000030B505008A
:10207C0088352C6803000220202C38D10138002927
:10208C0035D0002A33D080209C684001844205D191
:10209C001869002802D10130014228D119651900B4
:1020AC0054310A804A801A0000219032116021229A
:1020BC0080212A608022586E92054901904217D1E6
:1020CC00154A8C4204D11969144A002900D0124ACD
:1020DC009A67EFF31081012282F310881A6880232B
:1020EC0090681B040343936081F31088002030BD7B
:1020FC000B4A8C4204D119690A4A002900D0084ABB
:10210C009A67EFF31081012282F310881A688023FA
:10211C00106803431360E7E7811F0008F91F0008EC
:10212C00171F0008491F0008806A0023020010B521
:10213C005E321380083A138002F07AFD10BD7047AE
:10214C00F7B50168C14DCB6904000A6888682B4259
:10215C0010D120252B4200D19BE08026760515401E
:10216C000640354300D194E0636F2000002B00D073
:10217C0085E085E0B64D05400095B64D009E1540B6
:10218C00354300D185E0250001269035334205D03A
:10219C00D70503D50E622F683E432E6002263342CC
:1021AC000CD0C7070AD527000E6290373E680197FE
:1021BC00B446042667463E43019F3E6004263342E4
:1021CC000CD0C7070AD527000E6290373E680197DE
:1021DC00B446022667463E43019F3E600826B4463D
:1021EC00334209D02027009E1740374304D066465F
:1021FC000E622F683E432E6080263601334206D095
:10220C00570104D50E6220212E68314329602968BC
:10221C00002935D020210B420AD080235B051140C8
:10222C000340194304D0636F002B01D02000984762
:10223C0022682B684027966828223E4013402000D5
:10224C001E4322D0FFF716FE23689B683B4218D032
:10225C00EFF31081012383F31088250004CD9368DC
:10226C00BB43936081F31088E86F002809D07A4B48
:10227C008363FEF7D1FA002802D0E86F836B98478E
:10228C00F7BD200002F0D4FCFAE702F0D1FC2E607E
:10229C00F6E7E56E012D00D09FE01026334200D109
:1022AC009BE0324200D198E00E62896840230A001C
:1022BC001A40194257D0211DCA6F1068426892B259
:1022CC00002ADDD027005C373F889742D8D92700F9
:1022DC005E373A80026820208446104000906046A9
:1022EC00024232D1EFF3108785F3108820685B4EE1
:1022FC0002683240026087F31088EFF3108785F391
:10230C00108820688268AA43826087F31088EFF3F4
:10231C00108785F31088206882689A43826087F35F
:10232C001088230062468C331A60009BE366EFF33F
:10233C00108085F3108822680F351368AB43136047
:10234C0080F31088C86FFEF731FA0223220023674E
:10235C0023005C325E331B881188C91A89B22000B5
:10236C00FFF7EDFE8CE7230020005C335E3019880C
:10237C00038800889BB2002800D181E7C91A89B272
:10238C00002900D17CE7EFF3108785F310882068D3
:10239C00334E03683340036087F31088EFF31087E4
:1023AC0085F3108820682F4E83683340836087F351
:1023BC001088230020208C331860E2666267EFF3EC
:1023CC00108085F31088102522681368AB431360C6
:1023DC0080F3108802232367C1E780256D032B420D
:1023EC0006D0460204D520000D6202F083FC47E7BC
:1023FC0080210B4207D080252D0411402840014339
:10240C0001D0A36FB1E640210B4216D00A4214D082
:10241C00EFF31080012383F31088226813688B4339
:10242C00136080F310882300202288331A60002365
:10243C002000A36702F0F5FB22E7190214D5510026
:10244C0012D5200000F0D3FE1AE7C0460F0800009A
:10245C00010000102001000435210008FFFEFFFFE1
:10246C00DFFEFFFFFEFFFFEFDB0100D408E7002AD1
:10247C0000DB05E7200000F0B9FE01E70100F8B52C
:10248C0003008C310C6860331A880368222C5DD1F0
:10249C005B6A846D134002002370836D5E320133DE
:1024AC0083651388013B9BB2138013889CB2002B6D
:1024BC0048D1EFF31086013383F310880568264F5B
:1024CC002A683A402A6086F31088EFF3108683F36B
:1024DC0010880568AA689A43AA6086F3108820229F
:1024EC000A6002681D49446704678A4210D01C497F
:1024FC008A420DD0526812020AD5EFF3108183F391
:10250C0010880268174C13682340136081F31088FD
:10251C00C36E012B17D10022C266EFF3108483F334
:10252C00108801680F330A689A430A6084F3108894
:10253C000268D169194200D0136203005C33198818
:10254C00FFF7FDFDF8BD02F065FBFBE7082299697A
:10255C000A439A61F6E7C046DFFEFFFF00800040A9
:10256C0000840040FFFFFFFB0200F8B503008C3233
:10257C00116860331C88036822295CD1596A836D09
:10258C00214019800100023383655E310B88013BC9
:10259C009BB20B800B889CB2002B48D1EFF31086BA
:1025AC00013383F310880568254F29683940296069
:1025BC0086F31088EFF3108683F310880568A968FA
:1025CC009943A96086F310882021116002681D4987
:1025DC00446704678A4210D01B498A420DD0526866
:1025EC0012020AD5EFF3108183F310880268174C9E
:1025FC0013682340136081F31088C36E012B17D12D
:10260C000022C266EFF3108483F3108801680F3345
:10261C000A689A430A6084F310880268D1691942E7
:10262C0000D0136203005C331988FFF788FDF8BDF6
:10263C0002F0F0FAFBE7082299690A439A61F6E77F
:10264C00DFFEFFFF0080004000840040FFFFFFFB27
:10265C000300F0B560331B8885B002930368040057
:10266C00DD691A6803929A68019202008C32126832
:10267C00222A00D0CAE0030068331B88002B02D04A
:10268C0020231D4208D123005E331B889AB2002BF5
:10269C0000D09BE005B0F0BD2600236802995B6A70
:1026AC00A26D0B401370A36D5E360133A3653388A6
:1026BC002268013B9BB233800723D5691D422FD082
:1026CC00063B1D4208D00399C90505D521001362AC
:1026DC009031086803430B6002231D4209D0019915
:1026EC00C90706D52100136290310868DB18034333
:1026FC000B6004231D4209D00199C90706D513624A
:10270C00220090321168023B0B4313602700903774
:10271C003B68002B04D0200002F08AFA00233B60B7
:10272C00338899B2002BABD1EFF31086013383F3CE
:10273C0010882068384F02683A40026086F310888F
:10274C00EFF3108683F310882068344F82683A4088
:10275C00826086F31088220020208C321060616722
:10276C00216722682E498A4210D02E498A420DD008
:10277C00526812020AD5EFF3108183F31088226895
:10278C00294813680340136081F31088E36E012B12
:10279C0018D10022E266EFF3108083F310882168D1
:1027AC000F330A689A430A6080F310882268D16953
:1027BC00194200D0136223005C3320001988FFF704
:1027CC00BEFC5DE7200002F025FA59E723006833D0
:1027DC001B88934200D85DE7EFF31080012282F34F
:1027EC0010882168114D8B682B408B6080F310880A
:1027FC000F4B6367EFF3108182F31088202322685C
:10280C0010680343136081F3108843E70822996929
:10281C000A439A613EE7C046FFFEFFFFFEFFFFEF53
:10282C000080004000840040FFFFFFFBFFFFFFEF34
:10283C00892400080300F0B560331B8885B002932F
:10284C0003680400DD691A6803929A680192020019
:10285C008C321268222A00D0C8E0030068331B882F
:10286C00002B02D020231D4208D123005E331B888D
:10287C009AB2002B00D099E005B0F0BD2600236879
:10288C000298596AA26D014011800232A2655E362F
:10289C003288013A92B232800722DD6915422FD07C
:1028AC00063A154208D00399C90505D521001A62CC
:1028BC009031086802430A600222154209D001993E
:1028CC00C90706D521001A62903108689218024394
:1028DC000A600422154209D00199C90706D51A626B
:1028EC0022000223903211680B43136027009037AB
:1028FC003B68002B04D0200002F09AF900233B60C7
:10290C00338899B2002BADD1EFF31086013383F3EA
:10291C0010882068384F02683A40026086F31088AD
:10292C00EFF3108683F310882068344F82683A40A6
:10293C00826086F31088220020208C321060616740
:10294C00216722682E498A4210D02E498A420DD026
:10295C00526812020AD5EFF3108183F310882268B3
:10296C00294813680340136081F31088E36E012B30
:10297C0018D10022E266EFF3108083F310882168EF
:10298C000F330A689A430A6080F310882268D16971
:10299C00194200D0136223005C3320001988FFF722
:1029AC00CEFB5FE7200002F035F95BE723006833CC
:1029BC001B88934200D85FE7EFF31080012282F36B
:1029CC0010882168114D8B682B408B6080F3108828
:1029DC000F4B6367EFF3108182F31088202322687A
:1029EC0010680343136081F3108845E70822996946
:1029FC000A439A6140E7C046FFFEFFFFFEFFFFEF70
:102A0C000080004000840040FFFFFFFBFFFFFFEF52
:102A1C00752500080200F0B58432117803000220FD
:102A2C0001291FD01C000121883422301170206034
:102A3C00EFF3108681F310880C271D682868B843C3
:102A4C00286086F31088EFF3108081F310881968E2
:102A5C0008230D682B430B6080F310882023002083
:102A6C0023601070F0BD0200F0B5843211780300C1
:102A7C00022001291FD01C00012188342230117042
:102A8C002060EFF3108681F310880C271D682868EE
:102A9C00B843286086F31088EFF3108081F3108818
:102AAC00196804230D682B430B6080F310882023D6
:102ABC00002023601070F0BD030088338C301B683D
:102ACC000068184370470000F8B504002569A16838
:102ADC00036829436569C269294318688B4D114302
:102AEC0028400143196059688948A5690140E0688C
:102AFC00014388485960834204D087498B4201D0F6
:102B0C00216A0D439968854E314029430F25996000
:102B1C00D96AA943656A2943D96281498B421BD181
:102B2C000321804B5B6D0B401800022B06D0082054
:102B3C008B4203D0013B59424B41980080231B022E
:102B4C009A4200D0B2E008285AD8FDF7BBFAD959FE
:102B5C008E59AC5959598F0073498B420FD10C21A6
:102B6C00704B02205B6D0B40082BE7D002D8591E2E
:102B7C008B41E2E710200C2BE0D10838DEE76B49E3
:102B8C008B420BD13021674B02205B6D0B40202B0D
:102B9C00D4D0ECD91020302BEFD0CFE764498B4246
:102BAC0000D1A9E063498B4200D1A5E062498B4278
:102BBC0000D1A1E0834216D1C0228021594B1201D1
:102BCC005B6D090113408B421FD017D8002B19D114
:102BDC00FEF7E4F9061E19D10020584BA36600231A
:102BEC006367A367F8BD4C4A934209D1C022802188
:102BFC004C4B92005B6D89001340E4E7934231D05B
:102C0C000120EAE7FEF7DCF8E4E74D4E626A4D4B33
:102C1C005200D75A30003900FDF75EFA032365687D
:102C2C006B438342ECD82B038342E9D300233A0055
:102C3C0030001900FDF7DCFA0027060E0B023343B7
:102C4C0002026E0892197B41100019002A003B0009
:102C5C00FDF7CEFA3C4BC2183C4B9A42D0D82368B5
:102C6C00D860B9E780263602D0E7354A616A354B21
:102C7C0049001000C95AFDF72FFA656840006B082F
:102C8C00C0182900FDF728FA0200314B103A9A427D
:102C9C00B6D80F23020000079A4393B2400F226864
:102CAC000343D36098E7FEF78BF82BE00828A7D8EE
:102CBC00FDF7FEF916A605A61CA6A6A61F00204821
:102CCC00626A204B5200D15AFDF706FA65686B0810
:102CDC00C0182900FDF700FA02001D4B103ABCE7A2
:102CEC00FEF75CF9002800D176E7E9E7FEF768F813
:102CFC00F8E780200002E3E780231B029A42EFD121
:102D0C00FEF74CF9021E00D166E7AFE7F369FFCF7F
:102D1C00FFCFFFFF0080004000840040FFF4FF1154
:102D2C0000380140001002400044004000480040C0
:102D3C00004C004000500040003C014001000100EC
:102D4C000024F400585B000800FDFFFFFFFC0F009F
:102D5C00EFFF0000836A30B51A0706D50168284CCE
:102D6C004A682240846B22434A60DA0706D5016820
:102D7C00244C4A682240C46A22434A609A0706D50A
:102D8C000168214C4A682240046B22434A605A076E
:102D9C0006D501681D4C4A682240446B22434A60A8
:102DAC00DA0606D501681A4C8A682240C46B2243A5
:102DBC008A609A0606D50168164C8A682240046C13
:102DCC0022438A605A0610D50168134D4A68446C38
:102DDC002A4022434A6080225203944205D14A6819
:102DEC000E4C2240846C22434A601B0606D50268B6
:102DFC000B4953680B40C16C0B43536030BDC0464C
:102E0C00FF7FFFFFFFFFFDFFFFFFFEFFFFFFFBFF4D
:102E1C00FFEFFFFFFFDFFFFFFFFFEFFFFFFF9FFF56
:102E2C00FFFFF7FFF7B504000D00170000932268B1
:102E3C00D3692B405B1B59424B41BB4201D0002054
:102E4C0026E0089B0133F3D0FDF7B8FA009BC01ABB
:102E5C00089B98422DD8002B2BD023681A68520758
:102E6C00E5D52A004021403A8A43E0D0DA690826A9
:102E7C0011003140019132420BD020001E62FEF74E
:102E8C00F9FF230090331E6000230120843423704B
:102E9C00FEBD8022D96912011142C8D01A622000ED
:102EAC00FEF7E8FF2300202290331A60019B843444
:102EBC0023700320ECE70000030073B50026040028
:102ECC0090331E60FDF77AFA236805001B681B0718
:102EDC001FD58021284B320000938903030020006A
:102EEC00FFF7A0FFB04214D0EFF31081012383F35E
:102EFC0010888020226813688343136081F3108844
:102F0C002300202288331A6003200023843423708A
:102F1C0076BD260023688C361B685B0723D5802181
:102F2C00154B0022009320002B00C903FFF77AFFFA
:102F3C00002818D0EFF31080012282F3108821684A
:102F4C000E4D0B682B400B6080F31088EFF3108054
:102F5C0082F3108821688B6893438B6080F3108810
:102F6C0020233360D0E723002022002088331A600E
:102F7C003260E0662067C8E7FFFFFF01DFFEFFFF5E
:102F8C0070B5041E01D1012070BD050088352B6879
:102F9C00002B04D1020084321370FFF765F8242350
:102FAC00012122682B6013688B431360A36A002BEA
:102FBC0002D02000FFF7CEFE2000FFF785FD012890
:102FCC00E1D0236807495A6820000A402A215A6038
:102FDC009A688A439A60012219680A431A60FFF7BB
:102FEC006BFFD1E7FFB7FFFF70B5041E01D10120C5
:102FFC0070BD050088352B68002B04D1020084328B
:10300C001370FFF731F82423012122682B60136819
:10301C008B431360A36A002B02D02000FFF79AFEAB
:10302C002000FFF751FD0128E1D0236809495A68B7
:10303C0020000A4022215A609A688A439A6008222A
:10304C0099680A439A60012219680A431A60FFF7CB
:10305C0033FFCDE7FFB7FFFF03005C3370B581652D
:10306C0080241A805A800023816843676401A1423E
:10307C004CD1036959424B411B02FF3301006031B3
:10308C000B8003000021903319602231043B19603E
:10309C00EFF31084012383F3108801688D682B43B0
:1030AC008B6084F3108880258021466E84680369C8
:1030BC00AD054901AE423BD1050068352D889542DE
:1030CC0036D82A4A8C4203D1294A002B00D0274AF1
:1030DC004267002B0BD0EFF31081012383F3108890
:1030EC000268FF3314682343136081F31088EFF3F5
:1030FC001081012383F31088802302685B0590689C
:10310C000343936081F31088002070BD002905D122
:10311C000169FF230029B1D0803BAFE7802464050F
:10312C00A142ABD101697F230029A7D0403BA5E781
:10313C00104A8C4203D1104A002B00D00D4A426732
:10314C000122002B0AD0EFF3108182F31088902318
:10315C0002685B00106803431360D3E7EFF3108140
:10316C0082F31088026820231068F4E75D260008BB
:10317C0041280008892400087525000803008C30BC
:10318C0070B504680220202C2BD10138002928D0DE
:10319C00002A26D080209C684001844205D1186901
:1031AC00002802D1013001421BD100200D4CD86601
:1031BC001868A04212D00C4CA0420FD040680002FC
:1031CC000CD5EFF31085012080F3108880201C684B
:1031DC00C00426683043206085F310881800FFF780
:1031EC003BFF70BD0080004000840040704770477A
:1031FC00020010B5843211780300022001290ED090
:10320C0001211170EFF3108081F3108819680223EB
:10321C000C6823430B6080F310880020107010BDE5
:10322C00020010B5843211780300022001290ED05F
:10323C0001211170EFF3108081F3108802241968BA
:10324C000B68A3430B6080F310880020107010BD36
:10325C00836810B50400002B05D0032201009847A9
:10326C000023A360E36010BD836810B50400002B3D
:10327C0002D0032201009847200010BD4B1E032BE7
:10328C0000D9FEE7880004387047000000B501390A
:10329C00425C102013000340024204D0022917D8CC
:1032AC000C4B4800C35AD20708D5032910D8080084
:1032BC00FCF708FF0206080B01221343180000BD9F
:1032CC001022FAE780225200F7E780225201F4E73D
:1032DC00FEE7C046785B00080139032900D9FEE7F8
:1032EC00014B585C7047C046745B000801390329D8
:1032FC0000D9FEE7014B585C7047C046705B000874
:10330C00F7B504000E00FFF7B9FF310005002000EF
:10331C00FFF7E2FF33016433E31801939B68002B42
:10332C0005D0C24323691A61DA680243DA60771E5A
:10333C007B00E31898880B2817D8FCF7C3FE4E17B0
:10334C0017170606171748484828E35DDB0604D50F
:10335C00200029001030FEF785FDE35DDB0704D566
:10336C00200029001030FEF7A3FCF7BDE35DDB065F
:10337C0004D5200029001030FEF72AFDE35DDB07A1
:10338C00F3D5200029001030FEF70AFCEDE72000F1
:10339C0029001030FEF790FC31002000FFF7A6FF4B
:1033AC00010006002000FFF771FF25692B6A184306
:1033BC00019B28629B68002BD7D031002000FFF7BF
:1033CC008BFFC3432B61EB681843E860CDE720000B
:1033DC0029001030FEF770FCC7E723691B68DB0778
:1033EC00C3D420001030FEF783F8BEE770B501217E
:1033FC00040002256B00E35A002B04D0691E200048
:10340C00FFF77EFF00210135062DF3D1E36E002B73
:10341C0007D00222236952421A61D8680332024350
:10342C00DA60002907D023691B68DB0703D420006E
:10343C001030FEF75DF870BDF0B591B01F0016AB03
:10344C0004001E7802910192FFF718FF554B0500FE
:10345C0009932369082827D005D8002809D0042807
:10346C0020D0DB6D06E00C2820D01028F9D19B6D04
:10347C0000E05B6B01220A9300230692019A0B93E6
:10348C000D930E930C930F930593079308960B2AA9
:10349C0015D81000FCF716FE350C343B3D46484A57
:1034AC004E4C55579B6BE5E7DB6BE3E71B6CE1E799
:1034BC0010232A00099309A9E018FEF7CFF9029E00
:1034CC00019A013E7300E3189A80002A16D07B1CE7
:1034DC0014D0380001F0B4F8A84261D1324D380054
:1034EC00290000F061FE2900380000F09FFE012247
:1034FC00C00200D50F32A35D1343A35511B0F0BD2C
:10350C00202320002A00099309A91030D5E7302385
:10351C00F7E7602320002A0009A910300993FEF771
:10352C00CFF9CCE77023F5E75023EAE74023E8E72F
:10353C000223059320002A0005A91030FEF778FA23
:10354C00BDE70A23F5E73800174900F06FFE80232A
:10355C0002005B031A40184200D0FEE7230001264C
:10356C0010331800059205A92A0003930696FEF75E
:10357C005FFA02992000FFF7B9FE431EE25C0100DE
:10358C003243E254B3400B22E3189A80022320000A
:10359C0005930693FFF772FE05A902000398CDE789
:1035AC00FEE7C046FFFF0000A060000801390300E1
:1035BC000020032902D849005B189888704710B581
:1035CC0001211030FDF7CAFF10BD036918680123F3
:1035DC001840704770B505000C00FFF7F6FF002887
:1035EC000FD10126E36833420CD0E3682800B343C3
:1035FC00E360FFF7E4FF02235B422361E3681E43B1
:10360C00E66070BD2800FFF7DAFFFAE7194A0300FD
:10361C00904226D08022D205904224D0164A022015
:10362C0093421AD0154A013093421FD0144A0130EC
:10363C0093421BD0134A0130934217D0124A0130E7
:10364C00934213D0114A013093420FD01048114AC3
:10365C0093420AD0104A934209D00D4B984205D19F
:10366C00FEE70020F3E70120F4E70820704709206B
:10367C00FCE7C046002C014000040040000800405C
:10368C0000100040001400400020004000400140A9
:10369C00FFFF0000004401400048014070B50400E9
:1036AC000069FFF7B3FF05002000103000F092FE18
:1036BC000022084BAD00EA5026002500E260B4352C
:1036CC006436B54204D0103D2800FFF7CDFDF8E775
:1036DC00200070BDCC000020F8B5040008000D00DF
:1036EC00FFF794FF2369002B00D0FEE721001A4A54
:1036FC0080000C31815022002C3225612600137081
:10370C00203223636363A363E36323646364A3646E
:10371C001370537003221036300025002700E4602C
:10372C00E265236600F0BCFD6435B4372800103523
:10373C00FFF78EFDBD42F9D10023084A2360636078
:10374C00A3606361A3612362636280333000E26132
:10375C00A362FEF719F8F8BDCC000020FFFF0000B3
:10376C0010B586B004001022002102A802F02EF839
:10377C00002302A801A90193FDF724FC206900F0A5
:10378C005AFF012815D1059CFDF708FCC023DB016D
:10379C009C4206D007D88022064BD201234093428C
:1037AC0005D1400003E0E023DB019C42F9D006B0D8
:1037BC0010BDFEE7FFEFFFFF70B505000C00012AFE
:1037CC000CD0022A18D023005A1E93412969E41AFE
:1037DC002800CC62EC61FFF7FDFE70BDFFF7C0FF67
:1037EC000849FCF779FC60432B69010C99620131A3
:1037FC00FCF772FC0400E6E7FFF7B2FF2100FCF7D0
:10380C006BFCF1E740420F00F7B5060014001D00F9
:10381C00FFF734FD336907009A6A01320192822D59
:10382C002BD023D8102D13D8002D2CD13169224A3E
:10383C00CB6A934203D10132944200D11C00082F71
:10384C0035D027D8002F2BD0042F2ED0CC6528E0D4
:10385C00812DEBD13000FFF783FF1849FCF73CFCBE
:10386C0060430199FCF738FC0400DFE7832DDDD1C0
:10387C00D86A642101306043F4E73000FFF770FF31
:10388C0001996143EEE70121A940D86A0139013061
:10389C006043E7E70C2F0CD0102FD7D18C6500E0DC
:1038AC004C633000FFF796FEF7BD8C63F9E7CC63F1
:1038BC00F7E70C64F5E7C046FFFF000040420F003D
:1038CC00044B10B51868002802D00430FDF75CFEDC
:1038DC0010BDC046CC00002010B5FFF7F1FF10BDA5
:1038EC00044B10B55868002802D00430FDF74CFE8C
:1038FC0010BDC046CC00002010B5074CA0680028B5
:10390C0002D00430FDF740FEE068002802D00430FD
:10391C00FDF73AFE10BDC046CC000020044B10B59C
:10392C001869002802D00430FDF72EFE10BDC046E9
:10393C00CC000020044B10B55869002802D004308C
:10394C00FDF722FE10BDC046CC000020044B10B584
:10395C009869002802D00430FDF716FE10BDC04651
:10396C00CC000020044B10B5D869002802D00430DC
:10397C00FDF70AFE10BDC046CC000020044B10B56C
:10398C00186A002802D00430FDF7FEFD10BDC046B9
:10399C00CC000020044B10B5586A002802D004302B
:1039AC00FDF7F2FD10BDC046CC00002010B50C2276
:1039BC000021040001F00AFF00232000E36010BD89
:1039CC00F8B50500070004000E006435B437280074
:1039DC001035FFF7EBFFBD42F9D100233100200079
:1039EC002361FFF779FE2000F8BD836810B5002B2A
:1039FC0001D102F09BF8C368984710BD10B50028A0
:103A0C0000D1FEE700F04AFC0068C36E002B02D028
:103A1C006430FFF7EAFF10BD10B5FFF7EFFF10BDE4
:103A2C00030010B5002800D1FEE7007F01380728FD
:103A3C0012D8FCF747FB04161112111111140124B2
:103A4C00180000F02BFC2401006864340019836812
:103A5C00002B01D0FFF7C9FF10BD0324F0E70424AD
:103A6C00EEE70224ECE710B5FFF7DAFF10BD10B556
:103A7C00FFF7D6FF10BD10B501F0E2FD10BD10B57B
:103A8C0001F0E8FD10BD00007FB5002305280FD81C
:103A9C001F4B5A6BFCF716FB030F18212A3301211D
:103AAC000A435A635B6B0B400093009BA023DB051E
:103ABC00180007B000BD02210A435A635B6B0B4030
:103ACC000193019B134BF3E704210A435A635B6B8D
:103ADC000B400293029B104BEAE708210A435A63FE
:103AEC005B6B0B400393039B0C4BE1E710210A43E8
:103AFC005A635B6B0B400493049B094BD8E7202162
:103B0C000A435A635B6B0B400593059B054BCFE750
:103B1C00001002400004005000080050000C00503F
:103B2C00001000500014005010B5074900F07EFB47
:103B3C000003C00E012802D0022802D0FEE70020AC
:103B4C0010BD1020FCE7C0460064000807B50A4B06
:103B5C0002689A4209D18021084B8905DA6B0A4325
:103B6C00DA63DB6B0B400193019B054B054918682D
:103B7C0000F01AFB07BDC046007400400010024064
:103B8C002000002000640008F0B506008FB00D0086
:103B9C00170000211422684601F018FE242200218F
:103BAC0005A801F013FE3000174900F017FB009038
:103BBC00002826D03000FFF7B7FF102302000400C6
:103BCC009A431ED1012F0CD02B00002221006846F5
:103BDC00FCF747FD002814D121006846FCF701FDD5
:103BEC000FE00A4B68461E60FCF7D8FC002808D191
:103BFC00069007902200684605A9FCF749FD0028AD
:103C0C00E2D00FB0F0BDC0460064000820000020D8
:103C1C00084B02689A420CD18022074B9205D96A54
:103C2C000A43DA62DA6A05490A40DA62DA6B0A4058
:103C3C00DA6370470074004000100240FFFFFFDFA2
:103C4C0010B50C4986B0040000F0C8FA01900028A9
:103C5C000DD02000FFF768FF1023020001009A43EB
:103C6C0005D101A8FCF7ECFC01A8FCF7ABFC06B0F5
:103C7C0010BDC04600640008F0B5244E87B0039117
:103C8C00310005930492040000F0A8FAFFF7BEFC83
:103C9C001F4F8500EB59002B0ED1B420FFF7EBFE24
:103CAC0031000290200000F099FA01000298FFF711
:103CBC0087FEEB59029A1A60154B31005B592000B4
:103CCC001F6800F0B3FA0503ED0E29003800FFF76A
:103CDC006DFC0600042807D0002304220093290061
:103CEC0023003800FFF7A8FB022238000399FFF7E6
:103CFC0063FD29003800059B049AFFF785FD042E0F
:103D0C0002D03800FFF772FB07B0F0BDA0600008CE
:103D1C00CC000020F7B5134B06001900019300F0FE
:103D2C005DFAFFF773FC104F8400E359002B0DD1A3
:103D3C00B420FFF7A0FE01990500300000F04EFA08
:103D4C0001002800FFF73CFEE3591D603B591C683D
:103D5C00002C06D02000FFF7A1FCB4212000FFF7B7
:103D6C008EFEF7BDA0600008CC00002010B5FCF75B
:103D7C0025FB10BD704710B5FCF714FBFCF79FFB3F
:103D8C00FFF7F8FF10BD000010B590B03C220021E9
:103D9C00040001A801F01AFDFCF788FD8021274BD7
:103DAC00C900DA6B0A43DA63DA6B0A400092009AB4
:103DBC00032C0ED82000FCF785F9021523320121C3
:103DCC001A6E0A431A661B6E9B0702D408230791CE
:103DDC000193019B002B2ED001A8FCF79DFD002820
:103DEC0029D0FEE780211A6849000A431A601B6833
:103DFC005B05EED4022301933E3304910693E8E76E
:103E0C000121DA6D0A43DA65DA6D9207E1D41820E4
:103E1C00DA6D8243DA65042303910193D9E780219B
:103E2C001A6849020A431A601B689B03D1D4012308
:103E3C0002910193CDE710B010BDC04600100240B6
:103E4C007047000080210E4B4905DA6B84B00A43A1
:103E5C00DA63DA6B0A4001210192019A1A6C0A4367
:103E6C001A641A6C0A4080210292029A9A6B4901D8
:103E7C000A439A639B6B0B400393039B04B07047FC
:103E8C000010024010B5FFF7DDFFC020C000FCF7AA
:103E9C009BFAFCF773FAFFF7D3FF00F05DFF0248C3
:103EAC00FCF712FB10BDC0462400002010B50C22FC
:103EBC000021040001F08AFC0023E36010BD000027
:103ECC00002310B501280BD114225A43064B101DA8
:103EDC00C0188168002902D09B181B69984710BD37
:103EEC0001334008DBB2EDE7F400002010B5FFF71A
:103EFC00E7FF10BD10B5FFF7E3FF10BD10B50120B3
:103F0C00FCF7C0FC0220FCF7BDFC10BD10B5042072
:103F1C00FCF7B8FC0820FCF7B5FC10BD70B50C2400
:103F2C001025A8B2013CFCF7ADFC6D00002CF8D1BB
:103F3C0070BD0000F8B505252E4F2F4C38002570AC
:103F4C00FFF7B4FF2D4E25753000FFF7AFFF2300B0
:103F5C00013528332A481D70FFF7A8FF2300294894
:103F6C003C331D70FFF7A2FF230001355033264868
:103F7C001D706037FFF79AFF24483D706036FFF7DD
:103F8C0095FF23483570FFF791FF230021488C33B0
:103F9C001D70FFF78BFF23001F48A0331D70FFF728
:103FAC0085FF23001D48B4331D70FFF77FFF2300EE
:103FBC001B48C8331D70FFF779FF23001948DC3309
:103FCC001D70FFF773FF23002600F03316481D7099
:103FDC00FF36FFF76BFF15487571FFF767FF144845
:103FEC007576FFF763FF962312485B00E554FFF7E5
:103FFC005DFFF8BDF8000020F40000200C0100204B
:10400C002001002034010020480100205C01002028
:10401C00700100208401002098010020AC010020D8
:10402C00C0010020D4010020E8010020FC01002088
:10403C00100200202402002010B5044C143C201D5A
:10404C00FFF712F9024B9C42F8D110BD340200204C
:10405C00F4000020431C04D100207047834204D09C
:10406C000C310B685A1CF9D1F6E70120F5E700007A
:10407C00F7B505000C00431C00D1FEE70F23484A9E
:10408C000340C0B29B0009389F5803280ED8FCF798
:10409C0019F802263035C0232A009B011A409A4297
:1040AC0004D108233F4A11680B43136007262806E6
:1040BC002640000F0196FFF7E7FC82680300944648
:1040CC003A00032066467A435043C143304398601C
:1040DC000198032852D8FBF7F5FF52542D15C02335
:1040EC002A009B011A409A42E0D12E4A10231168F3
:1040FC00DAE708212B4A13688B43D6E7294A1021AB
:10410C001368F9E7032050431D68019E0D402843B6
:10411C00013E1860012E04D8200734D55868384366
:10412C005860A406A40F012C30D0022C33D0DA68CE
:10413C000A402EE06004400E84467F2801D1022004
:10414C00E1E72D070DD50F25586A0600380A4043C4
:10415C0040434543AE4335006646704305435D62BC
:10416C00EDE7186A0F250600100050434543AE4397
:10417C0035006646704305431D62E0E7FEE700200C
:10418C00C1E70120BFE75868B843C9E7D8680140C8
:10419C000A43DA60F7BDD86852000140F8E7C04620
:1041AC00805B00080000014010B5431C07D110BD16
:1041BC00834203D18968FFF75BFFF8E70C310B688A
:1041CC005A1CF5D1FEE70B685A1C01D1002002E005
:1041DC00834201D1486870470C31F4E7002310B5D5
:1041EC00421C02D0FFF7EFFF0300180010BD4B6814
:1041FC00002B02D10120404202E0834201D1086829
:10420C0070470C31F3E710B5002802D0FFF7EFFF31
:10421C0010BD01204042FBE703000868421C02D09D
:10422C00984201D1886870470C31F6E710B5431CF1
:10423C0001D0FFF7F1FF10BD030008008B4205D041
:10424C00002B03D0424250414042184070470000BE
:10425C00A0220D4BD20019680C480A4300211A60A9
:10426C0099601A6802401A6080225201DA601A685A
:10427C00074802401A60074A99611A628022064B6D
:10428C0012059A607047C04600100240FFFFF6FE10
:10429C00FFFFFBFF3F03000000ED00E00438704718
:1042AC000368424A8AB0934217D18020404A0001E9
:1042BC00116C01431164126C02400092009A3D4A49
:1042CC00934217D120213A4BDA6B0A43DA63DB6B4A
:1042DC000B400593059B0AB070478022D205934290
:1042EC0016D10120324AD16B0143D163D26B02400B
:1042FC000192019A304A934216D180212C4B09022B
:10430C001A6C0A431A641B6C0B400693069BE2E77B
:10431C002A4A934216D10220254AD16B0143D1631C
:10432C00D26B02400292029A254A934216D1802106
:10433C001F4B49021A6C0A431A641B6C0B400793FF
:10434C00079BC8E71F4A934216D10420184AD16B29
:10435C000143D163D26B02400392039A1A4A9342EF
:10436C0016D18021124B89021A6C0A431A641B6CF9
:10437C000B400893089BAEE7144A93429FD1102040
:10438C000B4AD16B0143D163D26B02400492049A65
:10439C000F4A93429FD18021054BC9021A6C0A43E4
:1043AC001A641B6C0B400993099B94E7002C014089
:1043BC0000100240001400400020004000040040A7
:1043CC000040014000080040004401400010004043
:1043DC00004801400368284A93420DD127492848D8
:1043EC000A6C02400A64274A93420ED12021234AC8
:1043FC00D36B8B43D36370478022D20593420DD18C
:10440C0001201E49CA6B8243CA631F4A93420DD1D5
:10441C001A4A1E49136C0B401364ECE71C4A934276
:10442C000BD102201549CA6B8243CA63194A9342C5
:10443C000BD1124A1849136CEDE7184A93420BD171
:10444C0004200E49CA6B8243CA63154A93420BD1AE
:10445C000A4A1449136CDEE7134A9342C3D1102065
:10446C000649CA6B8243CA63104A9342C3D1034ABA
:10447C000F49136CCFE7C046002C014000100240DE
:10448C00FFF7FFFF0014004000200040FF7FFFFFFC
:10449C000004004000400140FFFFFEFF0008004008
:1044AC0000440140FFFFFDFF0010004000480140A8
:1044BC00FFFFFBFF0300421C2AD01C4A90422AD06B
:1044CC0015D81B4A904228D009D880220F20D2053B
:1044DC0093421CD0174A0130934218D0FEE7164A7B
:1044EC0090421CD0154A1220934210D0F6E7144A81
:1044FC00904216D007D8134A904214D0124A142076
:10450C00934204D0EAE7114A16209342E6D1704751
:10451C000E204042FBE71320F9E71020F7E71120AB
:10452C00F5E71520F3E70D20F1E7C0460020004029
:10453C00000800400004004000100040001400403F
:10454C0000440140002C0140004001400048014063
:10455C000300421C2AD01C4A90422AD015D81B4A70
:10456C00904228D009D880220F20D20593421CD02B
:10457C00174A0130934218D0FEE7164A90421CD0DD
:10458C00154A1220934210D0F6E7144A904216D0E6
:10459C0007D8134A904214D0124A1420934204D0E4
:1045AC00EAE7114A16209342E6D170470E204042AA
:1045BC00FBE71320F9E71020F7E71120F5E71520AA
:1045CC00F3E70E20F1E7C046002000400008004051
:1045DC000004004000100040001400400044014062
:1045EC00002C01400040014000480140F8B5040097
:1045FC00FFF756FE2068FFF75DFF226DE16CFBF7BD
:10460C00EFFE2068FFF756FFFBF714FF2768380012
:10461C00FFF79EFF05003800FFF74CFF854209D0DD
:10462C002800226DE16CFBF7DBFE2068FFF790FFA2
:10463C00FBF700FFF8BD0130431E9841C0B2704734
:10464C0010B50649FFF7F2FD0003C00E431E032B05
:10465C0000D9FEE78000043810BDC046A0600008F9
:10466C00F0B58FB0059303000400A03318680291D5
:10467C002700D3490492FFF7B1FDA437D149039029
:10468C0026003868FFF7AAFDA836CF49009030689D
:10469C00FFF7A4FD2300AC330190CC491868FFF759
:1046AC009DFD039B0500002B00D1B6E03B68013358
:1046BC0003D0009B002B00D1AFE03368013303D053
:1046CC00019B002B00D1A8E02300AC331B68013305
:1046DC0002D0002D00D1A0E000990398FFF7ACFDAB
:1046EC0001992060FFF7A8FD29002060FFF7A4FDC9
:1046FC002060002800D190E0B54BB64F984200D016
:10470C008DE08022B44BD201196BB448114319636C
:10471C00196B01401963196C114319641B6C13401C
:10472C001B220693069B2300B0331A802300A03370
:10473C001868A349FFF738FD009B002B05D0230018
:10474C00A433A0491868FFF72FFD0026019BB34244
:10475C0007D02300A8339C491868FFF725FD0136C4
:10476C00FF36002D08D080239B001E432300AC3362
:10477C0096491868FFF718FD2200B1321278984B51
:10478C009200251DD550236800226360029BB02047
:10479C00A360049BE661E360149B22622361059B8A
:1047AC00E26263610C236262A36101212056FBF774
:1047BC0017FE2368BB4203D08A4A934200D0EEE036
:1047CC009626029B2800B601B34200D9C0E0FEF742
:1047DC000FFD009B2800002B00D0BCE0FEF704FC72
:1047EC0000281AD0029BB34200D9B7E00220FFF791
:1047FC00CBFA2368BB4200D0D8E0C023764A1B0119
:10480C00516D0B435365009B2800002B00D00FE12A
:10481C00FEF7EAFB002800D0A0E00FB0F0BD724B11
:10482C00984213D180226C4B9202D96A6F48114383
:10483C00D962D96A0140D962D96B1143D963DB6B58
:10484C0013408E220793079B52006CE7684B9842EB
:10485C0012D18022604BD202D96A66481143D962C8
:10486C00D96A0140D962D96B1143D963DB6B134010
:10487C000893089B604A56E7604B984212D18022FD
:10488C00554B1203D96A5E481143D962D96A01406B
:10489C00D962D96B1143D963DB6B13400993099B24
:1048AC00584A40E7584B984212D180224A4B52004A
:1048BC00D96A56481143D962D96A0140D962D96B79
:1048CC001143D963DB6B13400A930A9B504A2AE7C6
:1048DC00504B984212D180223F4B9200D96A4E48DD
:1048EC001143D962D96A0140D962D96B1143D9639A
:1048FC00DB6B13400B930B9B484A14E7B84212D165
:10490C008022354B5203D96A45481143D962D96A82
:10491C000140D962D96B1143D963DB6B13400C9303
:10492C000C9B404AFFE62F4B984200D0FEE68022BB
:10493C00294BD96A1143D962D96A9143D962D96B8F
:10494C001143D963DB6B13400D930D9B364AEAE69A
:10495C00FEF766FC3DE7FEF713FB41E71E4E2368AE
:10496C003268520567D42368BB4200D081E0736D76
:10497C002E4A13407365009B2800002B00D07FE06B
:10498C00FEF732FB002800D147E72368BB427AD1FF
:10499C00264B726D1A408023DB0013437365009B1A
:1049AC002800002B78D1FEF71FFB36E70D4A934207
:1049BC0000D028E7C023084A9B00516D21E7C04670
:1049CC00205F0008C45D0008E05C0008205C000863
:1049DC00003801400080004000100240FFBFFFFF84
:1049EC00340200200084004000440040FFFFFDFF23
:1049FC0000480040FFFFFBFF1D020000004C004080
:104A0C00FFFFF7FF1D03000000500040FFFEFFFFFB
:104A1C001D040000003C0140FFFDFFFF1D050000D0
:104A2C00FFFFEFFF1D0600001C070000FFF3FFFF58
:104A3C00FEF7A6FAEEE6BB420FD1194B726D1A4087
:104A4C0080231B0113437365009B2800002B0DD1A1
:104A5C00FEF7CAFA002886D1DFE6124A9342F3D158
:104A6C00114B726D1A4080239B00EBE7FEF788FA1E
:104A7C00F0E70C4A934200D07DE7736D0A4A78E761
:104A8C00FEF77EFA7EE7074A934288D1064B726D99
:104A9C001A4080235B0080E7FEF772FABDE6C04641
:104AAC00FFF3FFFF00840040FFFCFFFF13B500285D
:104ABC0003D0049C0094FFF7D3FD13BD10B5B130A7
:104ACC000278064B9200D058FDF7F6FF22231840CF
:104ADC00223843425841C0B210BDC04634020020B7
:104AEC0010B5B1300278064B9200D058FDF7E4FFB8
:104AFC0021231840213843425841C0B210BDC04652
:104B0C003402002070B504000E00002802D10120F0
:104B1C00404270BDFFF7D2FF051EF8D12100B23123
:104B2C000B78B13433702078034B80000122C058CD
:104B3C00FEF724FB2800ECE73402002070B50400DB
:104B4C000D0000281AD0FFF7B9FF002816D123005A
:104B5C0098331D6025000020B0352856FBF776FCF5
:104B6C002100B1342078064B80000122C058B231AC
:104B7C00FEF704FB00202856FBF75CFC70BDC0461A
:104B8C003402002070B50400150000281BD003006F
:104B9C00060000209C331960B0363056FBF756FCEB
:104BAC0023002100C233B8311B880968B134207846
:104BBC00C918054B8000C058AAB2FDF757FA00205F
:104BCC003056FBF737FC70BD3402002010B50028BE
:104BDC000BD00300A4331B68013306D1B13002782B
:104BEC00024B9200D058FDF715FF10BD3402002087
:104BFC0010B500280BD00300A4331B68013306D179
:104C0C00B1300278024B9200D058FDF72CFF10BD4A
:104C1C0034020020030010B594331B680438984705
:104C2C0010BD030010B598331B680438984710BDAD
:104C3C000122036810B5D96904000438114201D06F
:104C4C001A620BE00222D9691142F9D10422D96906
:104C5C001142F5D10822D9691142F1D1FFF72EFF8B
:104C6C00002805D1210001222000AE31FEF786FA82
:104C7C0010BD000010B51B20FBF712FC024B18688E
:104C8C00FDF75EFA10BDC046340200201C2010B5A2
:104C9C00FBF706FC054C6068002801D0FDF750FAC4
:104CAC00E069002801D0FDF74BFA10BD340200205A
:104CBC001D2010B5FBF7F4FB0D4CA068002801D0AB
:104CCC00FDF73EFAE068002801D0FDF739FA2069BB
:104CDC00002801D0FDF734FA6069002801D0FDF7F7
:104CEC002FFAA069002801D0FDF72AFA10BDC046A2
:104CFC0034020020010010B50122AE31FEF73EFA5D
:104D0C0010BD000003000A4910B50868C318EFF382
:104D1C000882934205D90C220120064B40421A60AE
:104D2C0010BD054A054C121B9342F4D20B60F7E7F9
:104D3C004C00002010050020004002200004000060
:104D4C00FEE7000016220120014B40421A6070471A
:104D5C00100500200120704710B5A6B03C220021A0
:104D6C0004A800F033FD10220021684600F02EFD4F
:104D7C004C22002113A800F029FD80208000FBF7B5
:104D8C009FFD22230493DE3307938023DB030B93D5
:104D9C00002308930E9308330F9380239B021093E8
:104DAC0080239B0411938023022440229B0504A89A
:104DBC0009920C940D941293FBF7AEFD002800D0D1
:104DCC00FEE70723029003902100684600930194AC
:104DDC00FCF73AF8002800D0FEE7802324905B040F
:104DEC0013A81393FCF708F9002800D0FEE726B0AF
:104DFC0010BDAA23A8215B00C35A4900405A403376
:104E0C00181A3F2318407047AA235B00C25A043B70
:104E1C00C35A9A4203D0FC30C26CD05C704701205C
:104E2C004042FBE7A923AB225B005200C35C805AD3
:104E3C00C0B2834202D3C01A3F307047C01A013847
:104E4C00FBE713B56B460268D97107335468190038
:104E5C000122A04716BD37B56B46DD1D29000400A5
:104E6C00FFF750FE002810D122003F21C0321388DA
:104E7C0001330B402100BC3109888B4205D0B4347E
:104E8C00118820682D784554138037BD030001002C
:104E9C0070B5C233C4311A880C6812193F242240F1
:104EAC001A800200BE3212881D880024AA4217D034
:104EBC001D8840321C880B4B521BA4B21A4004D5DF
:104ECC004023013A5B421A43013240231B1B9A4296
:104EDC0000D91A000A6001240349FFF753FE64420B
:104EEC00200070BD3F000080994E0008F7B50368A4
:104EFC0000919B68019204009847A92340255B0010
:104F0C00E35A0700ED1A012323742300FC33DB6BF7
:104F1C0001330AD1AE235B00E25C002A05D00022EB
:104F2C002000E2549430FFF751FE236820009B6868
:104F3C0098470028F9D0019EB54227D3BE4225D808
:104F4C00A92327005B00E35AFC37386D9A19C01867
:104F5C00402A34D83200009900F078FC3500A922A0
:104F6C005200A35A3F219B1926000B409436300067
:104F7C00A352FFF7B5FD002806D1FC342A003000FF
:104F8C001549E565FFF7FEFD0198FEBDBD4200D950
:104F9C003D0023682A005B68009920009847009B1D
:104FAC0020005B1900932368761B9B689847A92304
:104FBC005B00E55A133BFF3B07005D1BBCE740253C
:104FCC00ED1A2A00009900F041FC009B386D721B11
:104FDC00591900F03BFCC2E7994E000810B59142FC
:104FEC0001D1012149420400FC342364029BA263D9
:104FFC0063640300AA221133E36400235200E163CB
:10500C008352020051322265AB22520063658352F7
:10501C0010BDF7B5037C04000D00002B16D0FBF778
:10502C00CDF9A927AB2601907F007600E25BA35B4C
:10503C009A420BD0002DFAD0FBF7C0F9019BC01A95
:10504C008542F3D8A923A25B5B00E252F7BD10B5F1
:10505C000021FFF7DEFF10BDCBB210B53D2B09D8F8
:10506C00E0220F4C9B00D2000A4019591143FC302E
:10507C00C16310BDC0220A40C02A0ED1CF2B0CD860
:10508C003F23084C0B409B001B59E024044A9B0017
:10509C009B58E40021401943E9E701214942E6E726
:1050AC006464000824640008CBB210B53D2B09D809
:1050BC00E0220F4C9B00D2000A4019591143FC30DE
:1050CC00816310BDC0220A40C02A0ED1CF2B0CD850
:1050DC003F23084C0B409B001B59E024044A9B00C7
:1050EC009B58E40021401943E9E701214942E6E7D6
:1050FC0064640008246400080023F0B54360FA23BC
:10510C009B0083601E4B050003600123FC355B4252
:10511C00EB631C4B85B004000E000392984218D12F
:10512C00CE212000FFF798FFCF212000FFF7BCFF16
:10513C000123039A5B42012A00D1EB630093012304
:10514C002000AA6BE96B5B42FFF748FF200005B01B
:10515C00F0BD0D4A0D4FD26B0D4B92003900D0585B
:10516C00FFF73CF88642DBD00A493000FFF74BF8DA
:10517C003900E8633000FFF746F8A863D8E7C0466B
:10518C00786500085402002024640008205F0008A1
:10519C0064640008C45D00080300FC33DB6B10B5CD
:1051AC00040001330DD10368DB689847AE235B0024
:1051BC00E25C002A05D120000132E2549430FFF762
:1051CC0017FD10BD0300FC3373B559665E23FF3326
:1051DC00C254573BFF3B1340023BDBB2040000269A
:1051EC00042B01D81348C65C30231340302B19D143
:1051FC00C0230136DB00073E022E19D8250012070A
:10520C000D48D20F9435B600520300923258280044
:10521C00FFF74CFC2000FFF7BFFF28000749FFF702
:10522C008DFC73BD00239006E5D580230136E1E7A4
:10523C00FEE7C046686500085C650008634E000820
:10524C0010B50400FFF7A8FFAA23A8225B005200A8
:10525C00E15AA35A994208D02100FC31C96CC85CB0
:10526C003F2101330B40A35210BD01204042FBE70C
:10527C0010B5002202480349FFF73EFF10BDC0469F
:10528C00540200200080004010B5040000F0B0F97A
:10529C00E060236820005B699847002808DA00F07A
:1052AC00A7F9E368C01AA3689842F2D301204042E0
:1052BC0010BDF8B506000F0015000024AC4201D15A
:1052CC002000F8BD3000FFF7DFFF0028F8DB385571
:1052DC000134F3E7F7B50F0016001D001C1E0190FA
:1052EC000BD000240198FFF7CFFF002805DBB84254
:1052FC0003D030550134A542F4D12000FEBD10B5C9
:10530C0000F098F910BD10B500E000BFFAF7DEFF11
:10531C00FAF7EEFF00F07EF9FAE700000D4885463B
:10532C00FEF796FF0C480D490D4A002302E0D458B5
:10533C00C4500433C4188C42F9D30A4A0A4C0023D3
:10534C0001E013600432A242FBD300F059FAFFF7DC
:10535C00DAFFFEE70040022000000020AC00002035
:10536C00BC650008AC00002018050020FEE7914247
:10537C0008D008D90123891A8B40984209D30130EF
:10538C00C840013870470028FCD00130521A9040B8
:10539C00F7E70020F6E70000F7B5C3B205003A4A7C
:1053AC0001913D2B0BD9C0220240C02A35D1CF2B05
:1053BC0033D83F23354903409B00334A5B58E024E4
:1053CC009B009B58E4002C401C43631C25D0200000
:1053DC002F49FEF73FFE2F4F00281FD00F22230925
:1053EC002D4913409B005858224006008C46D6404D
:1053FC00012100250E4206D10D0095402A000243E2
:10540C0060460D001A500C2239680198FFF7AFFF67
:10541C002A0001002000FEF7B7FBF7BD20001F4952
:10542C00FEF718FE061E1DD00F2123090B401A484B
:10543C009B001D5821402E000122CE40164202D165
:10544C008A402A431A50164B39681D6801982A0065
:10545C00FFF78DFF1349020009682000EBB2FEF73D
:10546C000BFCDAE70121280000F01EF8396808224D
:10547C000198FFF77CFF31007F2800D9012128001B
:10548C0000F07AF8C9E7C046646400082464000898
:10549C000064000858000020B8030020A060000839
:1054AC005400002050000020F7B5C3B20400019155
:1054BC003D2B29D8E0222B499B005C58D20002409E
:1054CC001443631C41D00F2625093540264FAD00EF
:1054DC00EB592640F340DB070DD520002349FEF79E
:1054EC00B9FD002823D02000FEF7AAFB0122B24010
:1054FC007B5993437B51019B052B31D81800FAF74C
:10550C00E1FD202B2527292DC0220240C02A1CD1C9
:10551C00CF2B1AD83F23164903409B005B58E02140
:10552C00104A9B009B58C9000C401C43C9E7200043
:10553C001049FEF78FFD0028D8D02000FEF7EAFBBB
:10554C00D4E700212000FEF793FDF7BD1021F9E709
:10555C002021F7E70321F5E70121F3E70921F1E722
:10556C00FEE7C04664640008B8030020006400082D
:10557C0024640008A0600008C3B210B53D2B17D8F6
:10558C00E022174C9B00D20002401859104303062E
:10559C0000221B0F052B02D8124A9B009A580F248D
:1055AC00114B20408000C358002917D0936110BDC7
:1055BC00C0220240C02A0ED1CF2B0CD83F230B4C5B
:1055CC0003409B001B59E024054A9B009B58E400B8
:1055DC0020401843DBE701204042D8E79362E6E71E
:1055EC006464000808000020805B00082464000844
:1055FC0010B5FEF7BBFB10BD70B5041E09D0FEF74D
:10560C00B5FB050000F01AF8FEF7B0FB401BA042FA
:10561C00F8D370BD054B10B5002B06D00448FFF72E
:10562C00E8FB002801D000E000BF10BD0000000026
:10563C005402002010B5FEF725FC10BD7047000089
:10564C0010B5034B0100186800F030F810BDC046CF
:10565C005C00002010B5034B0100186800F000F945
:10566C0010BDC0465C00002070B50F4E0D003168B7
:10567C000400002902D100F0B1F8306029002000AC
:10568C0000F0ACF8431C03D101256D42280070BD1D
:10569C000323C51C9D43A842F8D0291A200000F012
:1056AC009DF80130F2D1EFE7D0030020F7B50322CB
:1056BC00CB1C9343083305001F000C2B34D20C2752
:1056CC00B94233D8280000F071F8374E33681C000B
:1056DC00002C2FD139002800FFF7C6FF0400431C13
:1056EC005FD134680094009B002B4AD1002C52D01F
:1056FC0023682800E3180099019300F06FF8019BD0
:10570C00834248D123682800FF1A3900FFF7ACFF09
:10571C00013040D02368DB19236033685A68002AB3
:10572C0033D1009B336019E0002BC9DA0C232B60BA
:10573C000020FEBD2168C91B20D40B290AD9E2190F
:10574C002760A34204D1326063681160536005E0A6
:10575C005A60F9E76268A3420ED13260280000F06B
:10576C002DF8200007220B30231D9043C21A9842BB
:10577C00DFD01B1AA350DCE75A60EFE72300646804
:10578C00A6E7009C63680093ADE71A005B68A34230
:10579C00FBD10023DAE70C2328002B6000F00EF875
:1057AC00C6E70760DAE7C046D403002010B502480C
:1057BC0000F04AF810BDC0461405002010B5024890
:1057CC0000F043F810BDC0461405002003008218F9
:1057DC00934200D1704719700133F9E7002370B57B
:1057EC00064D040008002B60FFF78CFA431C03D114
:1057FC002B68002B00D0236070BDC0461005002024
:10580C0070B500260C4C0D4D641BA410A64209D19A
:10581C00002600F08FF90A4C0A4D641BA410A64216
:10582C0005D170BDB300EB5898470136EEE7B300D5
:10583C00EB5898470136F2E7A4650008A465000808
:10584C00B4650008A465000870477047002310B5C4
:10585C009A4200D110BDCC5CC4540133F8E700006F
:10586C0070B505000C1E10D0043C2368002B00DA28
:10587C00E4182800FFF79AFF1D4A1368002B05D186
:10588C00636014602800FFF799FF70BDA34208D92C
:10589C00206821188B42F3D119685B6809182160C4
:1058AC00EEE71A005B68002B01D0A342F9D911680E
:1058BC005018A0420BD1206809185018116083426F
:1058CC00E0D118685B68411811605360DAE7A042B8
:1058DC0002D90C232B60D5E7206821188B4203D109
:1058EC0019685B680918216063605460CAE7C04698
:1058FC00D4030020062010B500F02CF80120FFF78F
:10590C001FFA70B504000D001F2904D9162303607B
:10591C000120404270BDC36B002B04D08A009B1841
:10592C001A68002A08D1200000F030F82A00010083
:10593C00200000F019F8EDE7012A09D0511C03D121
:10594C00162303600120E5E7002128001960904729
:10595C000020DFE710B5034B01001868FFF7D1FFFB
:10596C0010BDC0465C000020002370B5064D04003D
:10597C00080011002B60FFF7E5F9431C03D12B68DD
:10598C00002B00D0236070BD1005002010B5FFF770
:10599C00E1F910BDF0B557464E464546DE46E0B53A
:1059AC0004000D009246994683B08B4230D82DD01E
:1059BC0049465046FAF75AFC290006002000FAF72F
:1059CC0055FC331A9846203B34D49B4653465A46D2
:1059DC00934042461F00534693401E00AF423BD8B3
:1059EC00AF4200D179E05B46A41BBD41002B00DA2D
:1059FC0076E0002200230092019301235A46934043
:105A0C000193012342469340009329E08242CFD96F
:105A1C0000220023009201930C9B002B01D01C60F0
:105A2C005D600098019903B0F0BCBB46B246A94634
:105A3C00A046F0BD42469B4620239B1A5246DA40B4
:105A4C00414613004A468A40170042461F435346BC
:105A5C0093401E00AF42C3D9002200230092019351
:105A6C004346002BD8D0FB0772081A4346467B08E6
:105A7C000EE0AB4201D1A2420CD8A41A9D410120E8
:105A8C0024196D410021013E24184D41002E06D0F1
:105A9C00AB42EED9013E24196D41002EF8D100988D
:105AAC0001995B4600196941002B24DB2B005A46F7
:105ABC004446D3402A00E2401C005B461500002BF4
:105ACC002ADB26009E40330026004746BE403200AB
